S00E000062757A7A65722E7372656374
S11300000C942A000C9434000C9434000C943400A6
S11300100C9434000C9434000C9434000C9434008C
S11300200C9434000C9434000C9434000C9434007C
S11300300C9434000C9434000C9434000C9434006C
S11300400C9434000C9434000C9434000C9434005C
S11300500C94340011241FBECFE5D8E0DEBFCDBF21
S11300600E943A000C944A000C940000959A08955A
S1130070959808950E9436002FEF81EE94E0215068
S113008080409040E1F700C000000E94380080E00A
S10B009090E00895F894FFCFFD
S9030000FC
