S01700004763634170706C69636174696F6E312E737265635B
S11300000C942A000C9434000C9434000C943400A6
S11300100C9434000C9434000C9434000C9434008C
S11300200C9434000C9434000C9434000C9434007C
S11300300C9434000C9434000C9434000C9434006C
S11300400C9434000C9434000C9434000C9434005C
S11300500C94340011241FBECFE5D8E0DEBFCDBF21
S11300600E9436000C942C010C9400008FE081BB9C
S113007020E030E07AC082B3896082BB4FEF80E732
S113008092E0415080409040E1F700C0000082B30C
S1130090867F82BB82B3886082BB4FEF80E792E0A9
S11300A0415080409040E1F700C0000082B3877F58
S11300B082BB82B38C6082BB4FEF80E792E04150F9
S11300C080409040E1F700C0000082B3837F82BB90
S11300D082B3846082BB4FEF80E792E0415080405E
S11300E09040E1F700C0000082B38B7F82BB82B3F3
S11300F0866082BB4FEF80E792E0415080409040A1
S1130100E1F700C0000082B3897F82BB82B38260C2
S113011082BB4FEF80E792E0415080409040E1F78E
S113012000C0000082B38D7F82BB82B3836082BB38
S11301304FEF80E792E0415080409040E1F700C0EB
S1130140000082B38C7F82BB82B3816082BB4FEF9D
S113015080E792E0415080409040E1F700C0000009
S113016082B38E7F82BB2F5F3F4F2C3031050CF45E
S113017082CF82B3896082BB2FEF40E782E02150B7
S113018040408040E1F700C000009FEF29E648E1CD
S1130190915020404040E1F700C0000020E030E0F2
S11301A03EC082B3896082BB8FEF90E742E081500A
S11301B090404040E1F700C0000082B3867F82BBDC
S11301C082B3836082BB8FEF90E742E0815090401E
S11301D04040E1F700C0000082B38C7F82BB82B351
S11301E0866082BB8FEF90E742E0815090404040B0
S11301F0E1F700C0000082B3897F82BB82B38C60C8
S113020082BB8FEF90E742E0815090404040E1F79D
S113021000C0000082B3837F82BB2F5F3F4F2C302E
S113022031050CF4BECF82B3896082BB8FEF90E7B7
S113023022E0815090402040E1F700C0000082B3EA
S1130240867F82BB4FEF89E698E141508040904021
S10F0250E1F700C000000CCFF894FFCFD1
S9030000FC
