:100000000C942A000C943C000C943C000C943C0092
:100010000C943C000C943C000C943C000C943C0070
:100020000C943C000C943E000C943C000C943C005E
:100030000C943C000C943C000C943C000C943C0050
:100040000C943C000C943C000C943C000C943C0040
:100050000C943C0011241FBECFE5D8E0DEBFCDBF1D
:1000600020E0A0E6B0E001C01D92A236B207E1F7A1
:100070000E9455000C94C5010C9400001F920F9231
:100080000FB60F9211248F939F93809160009091EF
:100090006100019690936100809360009F918F9121
:1000A0000F900FBE0F901F901895D69A8C98949A27
:1000B0002FEF89EF90E0215080409040E1F700C0A1
:1000C0000000789484E089BF1FBC8F9A01E4D0E2DD
:1000D000C4E011E0DE9A25E32A95F1F70000DE98EE
:1000E0001DBC1CBC0EBDD8BFC8BF08B605FEFDCFE9
:1000F0001DBC1CBC1EBDD8BFC8BF109261001092B1
:10010000600008B605FEFDCF66B577B580E090E0EB
:100110000E94100129E23CE349EE53E40E949C0056
:1001200020E030E048E452E40E949C01882314F06F
:10013000979AD0CF9798CECF0E94B0000C946201CE
:100140000E945B0158F00E94540140F029F45F3F87
:1001500029F00C944B0151110C9496010C9451010F
:100160000E94730168F39923B1F3552391F3951B12
:10017000550BBB27AA2762177307840738F09F5FC8
:100180005F4F220F331F441FAA1FA9F335D00E2E35
:100190003AF0E0E832D091505040E695001CCAF7A2
:1001A0002BD0FE2F29D0660F771F881FBB1F261765
:1001B00037074807AB07B0E809F0BB0B802DBF013C
:1001C000FF2793585F4F3AF09E3F510578F00C940B
:1001D0004B010C9496015F3FE4F3983ED4F386956F
:1001E00077956795B795F7959F5FC9F7880F911D2C
:1001F0009695879597F90895E1E0660F771F881F18
:10020000BB1F621773078407BA0720F0621B730BCA
:10021000840BBA0BEE1F88F7E0950895E89409C0A7
:1002200097FB3EF490958095709561957F4F8F4F29
:100230009F4F9923A9F0F92F96E9BB279395F6953F
:10024000879577956795B795F111F8CFFAF4BB0FBD
:1002500011F460FF1BC06F5F7F4F8F4F9F4F16C021
:10026000882311F096E911C0772321F09EE8872FAB
:10027000762F05C0662371F096E8862F70E060E067
:100280002AF09A95660F771F881FDAF7880F9695E0
:10029000879597F9089597F99F6780E870E060E087
:1002A00008959FEF80EC089500240A94161617060F
:1002B00018060906089500240A9412161306140657
:1002C00005060895092E0394000C11F4882352F0BA
:1002D000BB0F40F4BF2B11F460FF04C06F5F7F4F72
:1002E0008F4F9F4F089557FD9058440F551F59F059
:1002F0005F3F71F04795880F97FB991F61F09F3F13
:1003000079F087950895121613061406551FF2CF3B
:100310004695F1DF08C0161617061806991FF1CF8B
:1003200086957105610508940895E894BB276627B2
:100330007727CB0197F908950E94A10108F48FEF68
:100340000895990F0008550FAA0BE0E8FEEF161666
:100350001706E807F907C0F012161306E407F507B9
:1003600098F0621B730B840B950B39F40A2661F02D
:10037000232B242B252B21F408950A2609F4A140D0
:0E038000A6958FEF811D811D0895F894FFCF83
:00000001FF
