:100000000C942A000C9434000C9434000C943400AA
:100010000C9434000C9434000C9434000C94340090
:100020000C9434000C9434000C9434000C94340080
:100030000C9434000C9434000C9434000C94340070
:100040000C9434000C9434000C9434000C94340060
:100050000C94340011241FBECFE5D8E0DEBFCDBF25
:100060000E9453000C9484020C9400001ABA87E892
:1000700086B987E487B9089597B18F70982B97B99F
:10008000369A349BFECF8AE18A95F1F700C024B1FD
:1000900085B190E0982F8827820F911D0895959A39
:1000A0000895959808958D9A0E94360087E00E94E1
:1000B0003C00BC01990F880B990B0E94670120E05E
:1000C00030E048EC52E40E94170220E030EC4FE7A9
:1000D00054E40E94F3009B01AC0160E070E088EC06
:1000E00092E40E94810020E030E040EA51E40E9466
:1000F000EE0088231CF40E944F00D8CF0E945100CC
:10010000D5CF5058BB27AA270E9499000C94DD0137
:100110000E94CF0138F00E94D60120F039F49F3FB1
:1001200019F426F40C94CC010EF4E095E7FB0C9442
:10013000C601E92F0E94EE0158F3BA176207730750
:100140008407950720F079F4A6F50C9410020EF4BC
:10015000E0950B2EBA2FA02D0B01B90190010C01D7
:10016000CA01A0011124FF27591B99F0593F50F4EF
:10017000503E68F11A16F040A22F232F342F442747
:10018000585FF3CF469537952795A795F04053953F
:10019000C9F77EF41F16BA0B620B730B840BBAF00F
:1001A0009150A1F0FF0FBB1F661F771F881FC2F77A
:1001B0000EC0BA0F621F731F841F48F4879577958E
:1001C0006795B795F7959E3F08F0B0CF9395880F48
:1001D00008F09927EE0F9795879508950E94A20140
:1001E00008F481E008950E9407010C94DD010E944B
:1001F000D60158F00E94CF0140F029F45F3F29F06A
:100200000C94C60151110C9411020C94CC010E9463
:10021000EE0168F39923B1F3552391F3951B550B28
:10022000BB27AA2762177307840738F09F5F5F4FC9
:10023000220F331F441FAA1FA9F335D00E2E3AF008
:10024000E0E832D091505040E695001CCAF72BD020
:10025000FE2F29D0660F771F881FBB1F2617370771
:100260004807AB07B0E809F0BB0B802DBF01FF27A3
:1002700093585F4F3AF09E3F510578F00C94C601B9
:100280000C9411025F3FE4F3983ED4F38695779582
:100290006795B795F7959F5FC9F7880F911D96955C
:1002A000879597F90895E1E0660F771F881FBB1FB8
:1002B000621773078407BA0720F0621B730B840B65
:1002C000BA0BEE1F88F7E0950895E89409C097FBF4
:1002D0003EF490958095709561957F4F8F4F9F4F1D
:1002E0009923A9F0F92F96E9BB279395F695879561
:1002F00077956795B795F111F8CFFAF4BB0F11F424
:1003000060FF1BC06F5F7F4F8F4F9F4F16C08823CA
:1003100011F096E911C0772321F09EE8872F762F00
:1003200005C0662371F096E8862F70E060E02AF041
:100330009A95660F771F881FDAF7880F969587952D
:1003400097F90895990F0008550FAA0BE0E8FEEF02
:1003500016161706E807F907C0F012161306E40789
:10036000F50798F0621B730B840B950B39F40A2682
:1003700061F0232B242B252B21F408950A2609F460
:10038000A140A6958FEF811D811D089597F99F6764
:1003900080E870E060E008959FEF80EC089500240D
:1003A0000A941616170618060906089500240A94DA
:1003B00012161306140605060895092E0394000C60
:1003C00011F4882352F0BB0F40F4BF2B11F460FFEF
:1003D00004C06F5F7F4F8F4F9F4F089557FD905818
:1003E000440F551F59F05F3F71F04795880F97FBF9
:1003F000991F61F09F3F79F08795089512161306B3
:100400001406551FF2CF4695F1DF08C016161706E1
:100410001806991FF1CF8695710561050894089516
:10042000E894BB2766277727CB0197F908950E94A8
:100430002A020C94DD010E94CF0138F00E94D601FF
:1004400020F0952311F00C94C6010C94CC011124DA
:100450000C9411020E94EE0170F3959FC1F3950F69
:1004600050E0551F629FF001729FBB27F00DB11D38
:10047000639FAA27F00DB11DAA1F649F6627B00DC8
:10048000A11D661F829F2227B00DA11D621F739FB1
:10049000B00DA11D621F839FA00D611D221F749FBF
:1004A0003327A00D611D231F849F600D211D822F06
:1004B000762F6A2F11249F5750409AF0F1F088232D
:1004C0004AF0EE0FFF1FBB1F661F771F881F91505A
:1004D0005040A9F79E3F510580F00C94C6010C9442
:1004E00011025F3FE4F3983ED4F3869577956795C4
:1004F000B795F795E7959F5FC1F7FE2B880F911D84
:0C0500009695879597F90895F894FFCF21
:00000001FF
